:020000040800F2
:1000000008040020450100084D0100084F010008C8
:1000100051010008530100085501000800000000CC
:100020000000000000000000000000005701000870
:1000300059010008000000005B0100085D01000894
:100040005F0100085F0100085F0100085F01000810
:100050005F0100085F0100085F0100085F01000800
:100060005F0100085F0100085F0100085F010008F0
:100070005F0100085F0100085F0100085F010008E0
:100080005F0100085F0100085F0100085F010008D0
:100090005F0100085F0100085F0100085F010008C0
:1000A0005F0100085F0100085F0100085F010008B0
:1000B0005F0100085F0100085F0100085F010008A0
:1000C0005F0100085F0100085F0100085F01000890
:1000D0005F0100085F0100085F0100085F01000880
:1000E0005F0100085F0100085F0100085F01000870
:1000F0005F0100085F0100085F0100085F01000860
:100100005F0100085F0100085F0100085F0100084F
:100110005F0100085F0100085F0100085F0100083F
:100120005F0100085F0100085F0100085F0100082F
:10013000DFF80CD000F018F800480047C1030008B1
:10014000080400200648804706480047FEE7FEE70F
:10015000FEE7FEE7FEE7FEE7FEE7FEE7FEE7FEE777
:100160005903000831010008064C074D06E0E0681D
:1001700040F0010394E8070098471034AC42F6D3EE
:10018000FFF7DAFF5C0400086C04000841F2180174
:10019000C4F20201086840F004000860086840F0FA
:1001A00008000860086840F010000860086840F027
:1001B00020000860086840F4807008607047000004
:1001C00040F60441C4F201014FF03330086040F6BC
:1001D0000001C4F20101086840F00400086042F226
:1001E0000401C4F20101086840F00400086041F213
:1001F0000402C4F20102106840F480001060086834
:100200000022C4F240421043086042F20001C4F2EE
:100210000101086840F08040086041F20041C4F2EA
:100220000101086840F480400860704780B500F024
:1002300001F880BD84B000200390029041F20001DB
:10024000C4F20201086840F480300860FFE741F220
:100250000000C4F20200006800F40030029003982D
:1002600001300390FFE702990020019039B9FFE7C0
:100270000398B0F5A06018BF01200190FFE7019836
:10028000C0070028E3D1FFE741F20000C4F20200FA
:1002900000688003002803D5FFE70120029002E0F8
:1002A00000200290FFE70298012851D1FFE742F2B7
:1002B0000001C4F20201086840F0100008600868FC
:1002C00020F003000860086840F00200086041F276
:1002D0000401C4F20201009108680860086808601F
:1002E000086840F480600860086820F47C100860AA
:1002F000086840F4E810086041F20001C4F202010D
:10030000086840F080700860FFE741F20000C4F226
:10031000020000688001002801D4FFE7F5E741F200
:100320000401C4F20201086820F0030008600868B4
:1003300040F002000860FFE741F20400C4F202004E
:10034000006800F00C00082801D0FFE7F4E700E0A7
:10035000FFE704B07047000080B541F20002C4F22C
:100360000202106840F00100106041F20401C4F282
:10037000020108680023CFF6FF03184008601068E8
:100380004FF6FF73CFF6F66318401060106820F444
:1003900080201060086820F4FE00086041F2080127
:1003A000C4F202014FF41F000860FFF73FFF4EF652
:1003B0000851CEF200014FF00060086080BD0000DF
:1003C00080B582B0002000900190FFF7DFFEFFF7BC
:1003D000F7FE009840F60C41C4F201010860FFE707
:1003E00040F60800C4F20100006800F0010140F28C
:1003F0000400C2F2000001600068012808D1FFE794
:1004000040F60C41C4F201014FF480600860FFE740
:1004100041F20800C4F20100006800F4005140F20B
:100420000000C2F200000160006838B9FFE740F642
:100430000C41C4F2010100200860FFE7D0E702E0B0
:1004400008C8121F08C1002AFAD17047704700205F
:1004500001E001C1121F002AFBD170476C040008A3
:0C04600000000020080400004E0400080A
:0400000508000145A9
:00000001FF
