:020000040800F2
:1000000010040020450100084D0100084F010008C0
:1000100051010008530100085501000800000000CC
:100020000000000000000000000000005701000870
:1000300059010008000000005B0100085D01000894
:100040005F0100085F0100085F0100085F01000810
:100050005F0100085F0100085F0100085F01000800
:100060005F0100085F0100085F0100085F010008F0
:100070005F0100085F0100085F0100085F010008E0
:100080005F0100085F0100085F0100085F010008D0
:100090005F0100085F0100085F0100085F010008C0
:1000A0005F0100085F0100085F0100085F010008B0
:1000B0005F0100085F0100085F0100085F010008A0
:1000C0005F0100085F0100085F0100085F01000890
:1000D0005F0100085F0100085F0100085F01000880
:1000E0005F0100085F0100085F0100085F01000870
:1000F0005F0100085F0100085F0100085F01000860
:100100005F0100085F0100085F0100085F0100084F
:100110005F0100085F0100085F0100085F0100083F
:100120005F0100085F0100085F0100085F0100082F
:10013000DFF80CD000F018F800480047C5030008AD
:10014000100400200648804706480047FEE7FEE707
:10015000FEE7FEE7FEE7FEE7FEE7FEE7FEE7FEE777
:100160005D03000831010008064C074D06E0E06819
:1001700040F0010394E8070098471034AC42F6D3EE
:10018000FFF7DAFFEC0400080C05000841F2180044
:10019000C4F20200016841F004010160016841F00D
:1001A00008010160016841F010010160016841F03F
:1001B00020010160016841F4807101607047000016
:1001C00040F60440C4F201004FF03331016040F6C4
:1001D0000000C4F20100016841F00401016042F234
:1001E0000400C4F20100016841F00401016041F221
:1001F0000401C4F201010A6842F480020A60016845
:100200000022C4F240421143016042F20000C4F2F5
:100210000100016841F08041016041F20040C4F2F8
:100220000100016841F480410160704780B500F031
:1002300001F880BD83B000200290019041F20000DF
:10024000C4F20200016841F480310160FFE741F22D
:100250000000C4F20200006800F40030019002982F
:1002600001300290FFE7019800210028009109D198
:10027000FFE70298A0F5A061B0F5A06F18BF0121BB
:100280000091FFE70098C0070028E0D1FFE741F2A6
:100290000000C4F20200006810F4003F03D0FFE742
:1002A0000120019002E000200190FFE70198012861
:1002B00050D1FFE742F20000C4F20200016841F0B1
:1002C00010010160016821F003010160016841F043
:1002D0000201016041F20400C4F202000168016001
:1002E00001680160016841F480610160016821F4E6
:1002F0007C110160016841F4E811016041F20000E5
:10030000C4F20200016841F080710160FFE741F230
:100310000000C4F20200006810F0007F01D1FFE786
:10032000F5E741F20400C4F20200016821F0030184
:100330000160016841F002010160FFE741F2040041
:10034000C4F20200006800F00C00082801D0FFE7AA
:10035000F4E700E0FFE703B07047000080B541F22A
:100360000000C4F20200016841F00101016041F2A5
:100370000401C4F202010A680023CFF6FF031A4009
:100380000A6002684FF6FF73CFF6F6631A40026008
:10039000026822F480220260086820F4FE000860EF
:1003A00041F20800C4F202004FF41F010160FFF7A0
:1003B0003DFF4EF60850CEF200004FF000610160A4
:1003C00080BD000080B582B0002001900090FFF752
:1003D000DDFEFFF7F5FE40F60C40C4F20100DDF84B
:1003E00000E0C0F800E041F21800C4F20200016829
:1003F00041F40061016042F62840C4F201004FF46C
:10040000C871018042F62C40C4F2010042F2107122
:10041000018042F60040C4F20100018841F0010170
:100420000180FFE742F61040C4F20100008810F09E
:10043000010F4AD0FFE740F20800C2F20000006856
:10044000002807D1FFE740F20000C2F200000121BE
:100450000160FFE740F20800C2F2000000680728D0
:1004600008D1FFE740F20000C2F200004FF0FF3178
:100470000160FFE740F20800C2F2000001680831A5
:10048000012202FA01F140F60C43C4F20103D3F851
:1004900000C02CEA0101196040F20001C2F2000123
:1004A0000968D0F800C0614401600068083002FAB1
:1004B00000F019680843186042F61040C4F20100C9
:1004C000018821F001010180FFE7ABE702E008C8E5
:1004D000121F08C1002AFAD170477047002001E0BE
:1004E00001C1121F002AFBD1704700000C05000853
:1004F0000000002004000000CC04000810050008E3
:100500000800002008040000DC04000801000000CE
:0400000508000145A9
:00000001FF
