:020000040800F2
:1000000040040020450100084D0100084F01000890
:1000100051010008530100085501000800000000CC
:100020000000000000000000000000005701000870
:1000300059010008000000005B0100085D01000894
:100040005F0100085F0100085F0100085F01000810
:100050005F0100085F0100085F0100085F01000800
:100060005F0100085F0100085F0100085F010008F0
:100070005F0100085F0100085F0100085F010008E0
:100080005F0100085F0100085F0100085F010008D0
:100090005F0100085F0100085F010008DD01000842
:1000A0005F010008DD0B00085F0100085F01000828
:1000B000F90B00085F0100085F0100085F010008FC
:1000C0005F0100085F0100085F0100085F01000890
:1000D0005F0100085F0100085F0100085F01000880
:1000E0005F0100085F0100085F0100085F01000870
:1000F000190C00085F0100085F0100085F0100089B
:100100005F0100085F0100085F0100085F0100084F
:100110005F0100085F0100085F0100085F0100083F
:100120005F0100085F0100085F0100085F0100082F
:10013000DFF80CD000F040F80048004771100008CC
:10014000400400200648804706480047FEE7FEE7D7
:10015000FEE7FEE7FEE7FEE7FEE7FEE7FEE7FEE777
:100160007D0B0008310100080649074A0868504322
:1001700043F23902104408604008704701490860A2
:1001800070470000380000206D4EC64130B50B4668
:10019000014600202022012409E021FA02F59D42B7
:1001A00005D303FA02F5491B04FA02F52844151E8B
:1001B000A2F10102F1DC30BD064C074D06E0E0681B
:1001C00040F0010394E8070098471034AC42F6D39E
:1001D000FFF7B2FF742F0008942F0008054800684D
:1001E00000F4807028B10348006840F48070014931
:1001F000086070471404014010B5F0234FF4A0725A
:100200000021084600F0F0FB222000F0BDFF00BFF7
:1002100000BF002404E00648008800F0BDFF641C15
:10022000B4F5963FF7D300BF00BF002010BD00001B
:100230001A0000202DE9F05F8046894614461F46CB
:10024000DDF828A0D3463B4622464946404600F00A
:10025000CBFB222000F098FF00BF00BF781E00FB00
:1002600004F50AE0002605E0A9193BF8110000F0AA
:1002700093FF761CA642F7D32D1B002DF2DA00BFA8
:1002800000BF0020BDE8F09F2DE9F04781468A4677
:1002900016462E48006818B94FF0FF30BDE8F087C9
:1002A0002A4800684068361A284909680988C81D24
:1002B000C11700EB51714FEAE10824480068C1689A
:1002C00006FB08F0214A1268528800FB02151F48FD
:1002D000006843881D48006802885146484600F07F
:1002E00083FB222000F050FF00BF00BF002723E067
:1002F00000241AE0297804F00702114101F00101FD
:1003000011B11349098801E012490988084600F033
:1003100043FF04F00700072806D10C480068008856
:10032000401EA04200D06D1C641C08480068008874
:10033000A042DFD86D1C7F1C044800684088B8428A
:10034000D6D800BF00BF0020A8E700001C00002096
:10035000180000201A00002070B505460E4614460D
:1003600009E014F8012B31462846FFF78DFF0448B9
:1003700000680088054420780028F2D170BD000094
:100380001C00002070B5FE48806940F2ED11084362
:10039000FB498861FB48006800F0FF2444F0BB1073
:1003A000F8490860081D0068F74900EA0104F748A9
:1003B0002043F449091D0860F548006820F07044A6
:1003C00044F03040F24908604FF0BB30091D08602E
:1003D000F048006820F00F0444F00B00ED4908607D
:1003E000ED484068ED4900EA0104ED482043EA4940
:1003F0004860EC480068EB490860EA48103800683B
:1004000020F00F0444F00300E64910390860DC488E
:10041000406940F48070DA49486140F20540410784
:10042000C86141F211208861322000F0DDFC002615
:10043000304600F0A9FE00F06BFE0546472D7DD149
:100440000120D94908700021EA2000F0A9FE2021EE
:10045000EB2000F0A5FE0C21EC2000F0A1FEC7214E
:10046000ED2000F09DFE3821E82000F099FE1021DB
:10047000E92000F095FE0121F12000F091FE10210D
:10048000F22000F08DFE0121402000F089FE0021C5
:10049000412000F085FE0021422000F081FE102165
:1004A000432000F07DFE0E21442000F079FE24213F
:1004B000452000F075FE0421462000F071FE502119
:1004C000472000F06DFE0221482000F069FE132154
:1004D000492000F065FE19214A2000F061FE192133
:1004E0004B2000F05DFE16214C2000F059FE1B2130
:1004F000502000F055FE3121512000F051FE2F21F7
:10050000522000F04DFE3F21532000F049FE3F21D4
:10051000542000F045FE3E21552000F041FE2F21E1
:10052000562000F03DFE7B21572000F039FE0921C6
:10053000582000F035FE0621592000E089E000F047
:100540002FFE06215A2000F02BFE0C215B2000F02C
:1005500027FE1D215C2000F023FECC215D2000F051
:100560001FFE1B21084600F01BFE01211A2000F08F
:1005700017FE2F21242000F013FE5721252000F024
:100580000FFE8821232000F00BFE3621182000F0FA
:1005900007FE0121192000F003FE0021012000F0D8
:1005A000FFFD88211F2000F0FBFDC82000F01CFC8F
:1005B00082211F2000F0F4FD322000F015FC922172
:1005C0001F2000F0EDFD322000F00EFCD2211F2094
:1005D00000F0E6FD322000F007FC5521172000F066
:1005E000DFFD0021084600F0DBFD11212F2000F087
:1005F000D7FD0021312000F0D3FD0021322000F092
:10060000CFFD3821282000F0CBFDC82000F0ECFB06
:100610003C21282000F0C4FDA821162000F0C0FDD8
:1006200000210E2000F0BCFD00210F2000F0B8FDDD
:100630000121102000F0B4FD4021112000F0B0FD98
:100640000021122000F0ACFD0021132000F0A8FDD5
:10065000A9E10020544908704FF48071012000F096
:100660009FFD4FF4E061022000F09AFD002104207C
:1006700000F096FD40F20721082000F091FD0021D6
:10068000092000F08DFD00210A2000F089FD0021E5
:100690000C2000F085FD00210D2000F081FD0021DF
:1006A0000F2000F07DFD0021102000F079FD0021D9
:1006B000112000F075FD0021122000F071FD0021D5
:1006C000132000F06DFDC82000F08EFB41F2B02138
:1006D000102000F065FD0721112000F061FD32209F
:1006E00000F082FB40F2BD11122000F059FD3220D3
:1006F00000F07AFB4FF4A051132000F051FD0E21C1
:10070000292000F04DFD322000F06EFB002120205A
:1007100000F046FD0021212000F042FDA5F5A84093
:10072000083838B1A0F57C50183800287DD005284D
:100730007CD167E040F60D31302000F031FD41F60C
:100740002311312000F02CFD41F62641322000F02B
:1007500027FD42F21C61332000F022FD42F21941D4
:10076000342000F01DFD40F60B51352000F018FD3F
:1007700041F20601362000F013FD4FF4C26115E08E
:10078000001002400014014000F0FF00BB0B00BB52
:1007900000180140001C014000200140FFF0F0FF64
:1007A000000B0B001408014020000020372000F04F
:1007B000F7FC40F20671382000F0F2FC4FF4417172
:1007C000392000F0EDFC40F605613A2000F0E8FC2D
:1007D00040F601613B2000F0E3FC4FF487713C20C0
:1007E00000F0DEFC40F20E513D2000F0D9FC40F25A
:1007F00003413E2000F0D4FC40F207613F2000F0AE
:10080000CFFC61E00021302000F0CAFC40F207611B
:10081000312000F0C5FC40F20531322000F0C0FC70
:100820000021352000F0BCFC01E01DE01BE041F29E
:100830000461362000F0B4FC4FF40171372000F061
:10084000AFFC0121382000F0ABFC40F207713920E9
:1008500000F0A6FC00213C2000F0A2FC0F213D206E
:1008600000F09EFC30E000BF0621302000F098FC34
:1008700040F20111312000F093FC0321322000F0FE
:100880008FFC4FF48371352000F08AFC40F6023172
:10089000362000F085FC40F20231372000F080FC69
:1008A00040F20771382000F07BFC0721392000F06E
:1008B00077FC4FF4C0613C2000F072FC40F20B2149
:1008C0003D2000F06DFC00BF00BF0021502000F073
:1008D00067FCEF21512000F063FC0021522000F062
:1008E0005FFC40F23F11532000F05AFCA5F5A840F0
:1008F000083830B1A0F57C50183850B1052807D120
:1009000000E000BF4FF41C51602000F049FC06E0FD
:1009100000BF4FF42741602000F042FC00BF00BF41
:100920000121612000F03CFC00216A2000F038FC2D
:100930000021802000F034FC0021812000F030FCF8
:100940000021822000F02CFC0021832000F028FCF4
:100950000021842000F024FC0021852000F020FCF0
:100960001021902000F01CFC0021922000F018FCC7
:100970000321932000F014FC4FF48871952000F0BF
:100980000FFC0021972000F00BFC0021982000F0C4
:1009900007FC41F23801032000F002FC40F237115D
:1009A000072000F0FDFB4FF4807002490860002032
:1009B00070BD0000100801400146024A118000206D
:1009C000704700001A000020014602480160002024
:1009D000704700001C0000200146024A11800020E0
:1009E00070470000180000202DE9F04704460D462E
:1009F00016461F462648007860B3A019A0F10108EA
:100A0000E819A0F10109C4F30F21022000F0C8FB8E
:100A1000E1B2032000F0C4FBC8F30F21042000F072
:100A2000BFFB08F0FF01052000F0BAFBC5F30F2162
:100A3000062000F0B5FBE9B2072000F0B1FBC9F3D6
:100A40000F21082000F0ACFB09F0FF01092000F0A5
:100A5000A7FB1BE0A9B2502000F0A2FBE819401E42
:100A600081B2512000F09CFBA1B2522000F098FB13
:100A7000A019401E81B2532000F092FBA9B22020A1
:100A800000F08EFBA1B2212000F08AFBBDE8F087C8
:100A90002000002010B500F001F810BD0CB50020BA
:100AA000019000903348006840F48030314908607C
:100AB00000BF3048006800F4003000900198401CEE
:100AC0000190009818B90198B0F5A06FF1D12948AC
:100AD000006800F4003010B10120009001E0002017
:100AE00000900098012843D12348006840F010008E
:100AF000214908600846006820F0030008600846A5
:100B0000006840F0020008601A48406819494860CF
:100B10000846406848600846406840F48060486085
:100B20000846406820F47C1048600846406840F45D
:100B3000E81048600846006840F08070086000BF18
:100B40000C48006800F000700028F9D0094840689F
:100B500020F00300074948600846406840F0020062
:100B6000486000BF0348406800F00C000828F9D135
:100B70000CBD0000001002400020024010B51348D8
:100B8000006840F0010011490860084640681049BB
:100B900008400E494860084600680E4908400B4965
:100BA00008600846006820F4802008600846406815
:100BB00020F4FE0048604FF41F008860FFF76AFFD2
:100BC0004FF000600449086010BD000000100240B2
:100BD0000000FFF8FFFFF6FE08ED00E00548008882
:100BE00000F0010028B10348008820F0010001490D
:100BF00008807047102C01404FF08040008A00F0C0
:100C0000010038B14FF08040008A20F001004FF021
:100C100080410882704700000548008800F001000C
:100C200028B10348008820F001000149088070477E
:100C3000103401400FB4084B10B504A902AA039860
:100C400000F01CF8044602A9002000F0C1F820467C
:100C500010BC5DF814FB0000D10D000802E008C8CC
:100C6000121F08C1002AFAD170477047002001E026
:100C700001C1121F002AFBD1704700002DE9FF4F70
:100C800089B09B460446002506E025280BD05A462D
:100C90000B999047641C6D1C20780028F5D10DB08D
:100CA0002846BDE8F08F0027B8460122474900E0FA
:100CB000074314F8013F203B02FA03F00842F7D142
:100CC00020782E2819D114F8010F47F004072A289C
:100CD0000ED06FF02F022078A0F1300109290CD836
:100CE00008EB880102EB410100EB0108641CF2E70C
:100CF0000A98641C50F8048B0A9020780028CED003
:100D0000642808D0692806D075281ED05A460B9949
:100D100090476D1C58E00A994FF00A0901C90A91E1
:100D2000002802DA40422D2102E0390504D52B21AA
:100D30008DF82010012103E0F90704D02021F7E706
:100D40008A4608AE0DE00021FAE70A994FF00A0939
:100D500001C90A91F7E74946FFF718FA303106F85A
:100D6000011D0028F7D1ADEB060000F1200978073E
:100D700001D44FF00108C84502DDA8EB090000E0EE
:100D800000208046002706E008A85A46C05D0B995F
:100D900090476D1C7F1C5745F6DB04E030205A4617
:100DA0000B9990476D1CB8F10001A8F10108F5DC22
:100DB00005E016F8010B5A460B9990476D1CB9F1E6
:100DC0000001A9F10109F4DC641C65E709280100B0
:100DD0000A68531C0B601070704710B50020FFF7B5
:100DE000EBFDFFF709FA10BD0949096842F21072DC
:100DF000B1FBF2F1484305E000BF00BF00BF00BFF8
:100E000000BF00BF011EA0F10100F5D17047000036
:100E10002400002000B585B0FFF7DFFF00F04AF89E
:100E20004FF47840FFF7D8FD0DA264210846FFF784
:100E300093FA4FF6FF70FFF7CFFD0C480CA1026844
:100E40006846FFF7F7FE6A468C211420FFF784FA04
:100E500000BF00F091F90028FBD005B000BD0000F4
:100E600050657264752021212100000010000020CF
:100E7000566F7472652073636F7265203A20256423
:100E80000000000010B500F015F84FF47840FFF7AF
:100E9000A3FD05A264210846FFF75EFA00BF00F03B
:100EA0006BF90028FBD010BD4741474E452021215A
:100EB0002100000008B50020FFF77EFD4FF6FF700F
:100EC000FFF78AFD1048FFF77FFD10A200210846BA
:100ED000FFF742FA114808231A46282100903C20C7
:100EE000FFF7A8F90E4808231A462821009005208C
:100EF000FFF7A0F9094808231A46282100906E2020
:100F0000FFF798F908BD0000642F0008202020207A
:100F10002020205041432D4D414E00003412000846
:100F2000B412000810B50446FFF757FFFFF7C2FFE1
:100F300094B94FF47840FFF74FFD12A264210846A0
:100F4000FFF70AFA4FF6FF70FFF746FD0FA28C215C
:100F50006420FFF701FA13E0012C11D14FF6FF7066
:100F6000FFF73AFD07A264210846FFF7F5F94FF4B1
:100F70007840FFF731FD05A28C216420FFF7ECF9E2
:100F800010BD00004A6F75657200000051756974EC
:100F90007465720001480088704700002404004016
:100FA00010B5FFF7EFF9FFF718FF10BD21494968A9
:100FB00021F0706040F080611E4A5160114649681E
:100FC00021F4700040F4800151601146496821F01D
:100FD000704040F0804151601749096821F4704029
:100FE00040F48041144A11601249496821F00F0011
:100FF00040F004010F4A51601146096821F0704029
:1010000040F0804111600D49896941F020010B4A8F
:1010100091611146896941F4807191611146896934
:1010200041F0010191611146896941F0020191612C
:1010300070470000002001400014014000100240F1
:1010400002480068012121EAD000704708140140DD
:1010500002488068012121EAD01070470020014039
:1010600002488068012121EAD03070470020014009
:10107000FFF796FFFFF79AFF3EE00020FFF752FFD1
:1010800000BF00F049F80028FBD000F06DF8002008
:101090001A4908601A49086001201A4908600020AE
:1010A0001949086016E000BF1548006818B91748CC
:1010B00000680028F8D01548006820B11148006881
:1010C000401C104908600F480068082802DD012014
:1010D0000A4908600A48006818B9084800680028EA
:1010E000E1D00748006810B1FFF794FE04E0034820
:1010F000006808B1FFF7C6FEBFE70000040000204B
:10110000000000200C00002010000020080000203B
:101110004FF0D8404088704710B5FFF7A1FF50B19D
:1011200010480078012806D100200E4908700846B2
:101130000078FFF7F7FEFFF783FF48B10948007812
:1011400030B901200749087008460078FFF7EAFE29
:10115000FFF77EFF20B10348007808B9012010BDD9
:101160000020FCE71400002010B5FFF713FF044631
:10117000FFF704F810BD000002488068012121EA51
:1011800010207047002001404FF0D8410880704780
:101190004FF0D841488070474FF0D84148807047A1
:1011A00070B505460C462846FFF7EEFF2046FFF7D0
:1011B000EFFF70BD00000000E0FFE0FFE0FFE0FF98
:1011C000000000000000E0FFE0FFE0FFE0FFE0FFC4
:1011D000E0FF0000E0FFE0FFE0FFE0FFE0FFE0FFF6
:1011E000E0FFE0FFE0FFE0FFE0FFE0FFE0FFE0FF07
:1011F000E0FFE0FFE0FFE0FFE0FFE0FFE0FFE0FFF7
:10120000E0FFE0FFE0FFE0FFE0FFE0FFE0FFE0FFE6
:10121000E0FFE0FF0000E0FFE0FFE0FFE0FFE0FFB5
:10122000E0FF000000000000E0FFE0FFE0FFE0FF63
:101230000000000000000000E0FFE0FFE0FFE0FF32
:10124000000000000000E0FFE0FFE0FFE0FFE0FF43
:10125000E0FF0000E0FFE0FFE0FFE0FFE0FFE0FF75
:1012600000000000E0FFE0FFE0FFE0FFE0FF000023
:1012700000000000E0FFE0FFE0FFE0FFE0FF000013
:1012800000000000E0FFE0FFE0FFE0FFE0FFE0FF24
:10129000000000000000E0FFE0FFE0FFE0FFE0FFF3
:1012A000E0FF000000000000E0FFE0FFE0FFE0FFE3
:1012B0000000000000000000E0FFE0FFE0FFE0FFB2
:1012C000000000000000E0FFE0FFE0FFE0FFE0FFC3
:1012D000E0FF000000000000E0FFE0FFE0FFE0FFB3
:1012E000E0FFE0FF000000000000E0FFE0FFE0FFA3
:1012F000E0FFE0FF000000000000E0FFE0FFE0FF93
:10130000E0FFE0FF00000000E0FFE0FFE0FFE0FFA3
:10131000E0FFE0FF0000E0FFE0FFE0FFE0FFE0FFB4
:10132000E0FF000000000000E0FFE0FFE0FFE0FF62
:1013300000000000000000000000000000000000AD
:10134000000000000000E0FF0000000000000000BE
:10135000E0FF0000E0FFE0FFE0FF00000000E0FF32
:10136000E0FFE0FFE0FFE0FFE0FFE0FFE0FFE0FF85
:10137000E0FFE0FFE0FFE0FFE0FFE0FFE0FFE0FF75
:10138000E0FFE0FFE0FFE0FFE0FFE0FFE0FFE0FF65
:10139000E0FFE0FF0000E0FFE0FFE0FFE0FFE0FF34
:1013A000E0FF000000000000E0FFE0FFE0FFE0FFE2
:1013B0000000000000000000E0FFE0FFE0FFE0FFB1
:1013C000000000000000E0FFE0FFE0FFE0FFE0FFC2
:1013D000E0FF0000E0FFE0FFE0FFE0FFE0FFE0FFF4
:1013E000E0FFE0FFE0FFE0FFE0FFE0FFE0FFE0FF05
:1013F000E0FFE0FFE0FFE0FFE0FFE0FFE0FFE0FFF5
:10140000E0FFE0FFE0FFE0FFE0FF00000000E0FFA2
:10141000E0FFE0FF0000E0FF00000000000000002F
:10142000E0FF0000000000000000000000000000DD
:10143000000000000000000000F800F800F800F8CC
:1014400000000000000000F800F800F800F800F8C4
:1014500000F8000000F800F800F800F800F800F8C4
:1014600000F800F800F800F800F800F800F800F8BC
:1014700000F800F800F800F800F800F800F800F8AC
:1014800000F800F800F800F800F800F800F800F89C
:1014900000F800F8000000F800F800F800F800F884
:1014A00000F800000000000000F800F800F800F864
:1014B000000000000000000000F800F800F800F84C
:1014C00000000000000000F800F800F800F800F844
:1014D00000F8000000F800F800F800F800F800F844
:1014E0000000000000F800F800F800F800F8000024
:1014F0000000000000F800F800F800F800F8000014
:101500000000000000F800F800F800F800F800F80B
:1015100000000000000000F800F800F800F800F8F3
:1015200000F800000000000000F800F800F800F8E3
:10153000000000000000000000F800F800F800F8CB
:1015400000000000000000F800F800F800F800F8C3
:1015500000F800000000000000F800F800F800F8B3
:1015600000F800F800000000000000F800F800F8A3
:1015700000F800F800000000000000F800F800F893
:1015800000F800F80000000000F800F800F800F88B
:1015900000F800F8000000F800F800F800F800F883
:1015A00000F800000000000000F800F800F800F863
:1015B000000000000000000000000000000000002B
:1015C00000000000000000F8000000000000000023
:1015D00000F8000000F800F800F80000000000F833
:1015E00000F800F800F800F800F800F800F800F83B
:1015F00000F800F800F800F800F800F800F800F82B
:1016000000F800F800F800F800F800F800F800F81A
:1016100000F800F8000000F800F800F800F800F802
:1016200000F800000000000000F800F800F800F8E2
:10163000000000000000000000F800F800F800F8CA
:1016400000000000000000F800F800F800F800F8C2
:1016500000F8000000F800F800F800F800F800F8C2
:1016600000F800F800F800F800F800F800F800F8BA
:1016700000F800F800F800F800F800F800F800F8AA
:1016800000F800F800F800F800F80000000000F88A
:1016900000F800F8000000F8000000000000000062
:1016A00000F8000000000000000000000000000042
:1016B000000000000000FFFFFFFF0000FFFFFFFF32
:1016C000FFFFFFFFFFFFFFFFFFFFFFFF0000FFFF28
:1016D000FFFF0000000000000000000004040404FC
:1016E000040004000A0A0A00000000000A0A1F0A97
:1016F0001F0A0A00041E050E140F04000313080439
:101700000219180002050502150916000C0C040246
:101710000000000008040202020408000204080895
:10172000080402000004150E0E1504000004041F36
:1017300004040000000000000C0C04020000001F64
:101740000000000000000000000C0C000010080465
:10175000020100000E11131519110E0004060404F5
:1017600004040E000E11100E01011F001F10080CC2
:1017700010110E00080C0A091F0808001F010F10A5
:1017800010110E001C02010F11110E001F10100885
:10179000040201000E11110E11110E000E11111E86
:1017A000100807000000040004000000000004000E
:1017B00004040200100804020408100000001F00C6
:1017C0001F00000002040810080402000E11100C93
:1017D000040004000E11151D0D011E00040A111154
:1017E0001F1111000F11110F11110F000E11010126
:1017F00001110E000F11111111110F001F01010F26
:1018000001011F001F01010F010101001E11010153
:1018100019111E001111111F111111000E040404E1
:1018200004040E001C080808080906001109050335
:10183000050911000101010101011F00111B15150E
:101840001511110011111315191111000E1111119B
:1018500011110E000F11110F010101000E111111D4
:10186000150916000F11110F050911000E11010EB7
:1018700010110E001F1504040404040011111111AD
:1018800011110E0011111111110A0400111111157D
:1018900015150A0011110A040A11110011110A0488
:1018A000040404001F10080E02011F001E020202A1
:1018B00002021E0000010204081000001E10101099
:1018C00010101E00040A11000000000000000000BB
:1018D00000001F00060604080000000000000608C3
:1018E0000E091E0001010D1311130D0000000E1151
:1018F00001110E00101016191119160000000E111A
:101900001F010E000814040E0404040000000E1948
:101910001916100E01010D13111111000400060417
:1019200004040E0008000808080906000101090562
:10193000030509000604040404040E0000000B154E
:101940001515150000000D131111110000000E11E6
:1019500011110E0000000D13130D010100001619E6
:101960001916101000000D130101010000001E01E6
:101970000E100F0004041F040414080000001111CD
:101980001119160000001111110A040000001111B4
:1019900015150A000000110A040A110000001111B7
:1019A0001E10110E00001F0804021F00080404028C
:1019B00004040800040404000404040002040408ED
:1019C00004040200021508000000000000000000EE
:1019D0000000000000000C12120C000000000C1EA1
:1019E0001E0C000000001E12121E000000001E1E31
:1019F0001E1E000000000C0C121E000000000C0C4B
:101A00001E1E000000001E120C0C000000001E1E16
:101A10000C0C000000001816161800000000181E1C
:101A20001E1800000000061A1A0600000000061E1C
:101A30001E06000000000C12120C000000000C1E1C
:101A40001E0C000000001E12121E000000001E1ED0
:101A50001E1E00000000000000000000000000004A
:101A60000000000000000000000000000000000076
:101A70000000000000000000000000000000000066
:101A800000000000000080018001800180018001D1
:101A9000800180018001800180018001800180013E
:101AA0000000000080018001000000000000000034
:101AB0000000000000000000CC00CC00CC00CC00F6
:101AC000CC00CC000000000000000000000000007E
:101AD0000000000000000000000000000000000006
:101AE00000000000000000000000000000000000F6
:101AF000600C600C600C30063006FE1FFE1F3006C6
:101B000038071803FE1FFE1F180318038C018C01F1
:101B10008C01000000008000E003F80F9C0E8C1C7C
:101B20008C188C009800F801E007800E801C8C183F
:101B30008C189C18B80CF00FE003800080000000A7
:101B4000000000000000000000000E181B0C110C2B
:101B500011061106110311039B018E01C038C06CE0
:101B600060446044304430441844186C0C38000021
:101B7000000000000000E001F00338071806180616
:101B80003003F001F000F8009C310E33061E061CF5
:101B9000061C063FFC73F02100000000000000005E
:101BA00000000000000000000C000C000C000C0005
:101BB0000C000C000000000000000000000000000D
:101BC0000000000000000000000000000000000015
:101BD000000000000000000200038001C000C000FF
:101BE0006000600030003000300030003000300015
:101BF0003000300060006000C000C00080010003C1
:101C000000020000000020006000C0008001800190
:101C1000000300030006000600060006000600069A
:101C2000000600060003000380018001C000600080
:101C30002000000000000000000000000000000084
:101C4000C000C000D806F807E001300338070000E4
:101C50000000000000000000000000000000000084
:101C60000000000000000000000000000000000074
:101C700080018001800180018001FC3FFC3F8001E8
:101C80008001800180018001000000000000000050
:101C90000000000000000000000000000000000044
:101CA0000000000000000000000000000000000034
:101CB00000000000000080018001000100018000A0
:101CC0000000000000000000000000000000000014
:101CD000000000000000000000000000E007E00736
:101CE00000000000000000000000000000000000F4
:101CF00000000000000000000000000000000000E4
:101D000000000000000000000000000000000000D3
:101D1000000000000000C000C00000000000000043
:101D2000000000000000000C000C00060006000689
:101D30000003000300038003800180018001C000D4
:101D4000C000C00060006000000000000000000053
:101D5000000000000000E003F007380E180C0C181B
:101D60000C180C180C180C180C180C180C180C1853
:101D7000180C380EF007E00300000000000000001F
:101D800000000000000000018001C001F001980186
:101D90008801800180018001800180018001800133
:101DA000800180018001800100000000000000002F
:101DB000000000000000E003F80F180C0C180C18CD
:101DC00000180018000C000600038001C00060002D
:101DD00030001800FC1FFC1F000000000000000085
:101DE000000000000000E001F807180E0C0C0C0CBD
:101DF000000C0006C003C007000C001800180C18E7
:101E00000C18180CF807E0030000000000000000A8
:101E1000000000000000000C000E000F000F800DFD
:101E2000C00C600C600C300C180C0C0CFC3FFC3F20
:101E3000000C000C000C000C000000000000000072
:101E4000000000000000F80FF80F180018000C0048
:101E5000EC03FC071C0E001C0018001800180C18DE
:101E60001C0C180EF807E003000000000000000042
:101E7000000000000000C007F00F381C1818180000
:101E80000C00CC03EC0F3C0E1C1C0C180C180C188E
:101E9000181C380EF007E0030000000000000000EE
:101EA000000000000000FC1FFC1F000C00060006E4
:101EB000000380038001C001C000E00060006000FA
:101EC0007000300030003000000000000000000012
:101ED000000000000000E003F007380E180C180C9A
:101EE000180C3806F007F007180C0C180C180C1812
:101EF0000C18380CF80FE003000000000000000090
:101F0000000000000000E003F007380E1C0C0C1865
:101F10000C180C181C1C381EF81BE0190018000CBB
:101F2000000C1C0EF807F00100000000000000008B
:101F300000000000000000000000000000000000A1
:101F4000800180010000000000000000000000008F
:101F5000000000008001800100000000000000007F
:101F60000000000000000000000000000000000071
:101F7000800180010000000000000000000000005F
:101F800000000000800180010001000180000000CD
:101F90000000000000000000000000000000000041
:101FA000000000000010001C800FE003F800180083
:101FB000F800E003800F001C00100000000000008B
:101FC0000000000000000000000000000000000011
:101FD00000000000F81F000000000000F81F0000D3
:101FE00000000000000000000000000000000000F1
:101FF00000000000000000000000000000000000E1
:102000000000000008003800F001C007001F0018A1
:10201000001FC007F00138000800000000000000A9
:10202000000000000000E003F80F180C0C180C185A
:102030000018000C000600038001C000C000C000B2
:1020400000000000C000C000000000000000000010
:102050000000000000000000E00718180420C2295A
:10206000224A114409440944094409221113E20C8B
:10207000024004201818E0070000000000000000E3
:1020800000000000000080038003C006C006C006F8
:10209000600C600C301830183018F83FF83F1C7096
:1020A0000C600C6006C006C00000000000000000CC
:1020B000000000000000FC03FC0F0C0C0C180C18B6
:1020C0000C180C0CFC07FC0F0C180C300C300C30EE
:1020D0000C300C18FC1FFC07000000000000000082
:1020E000000000000000C007F01F38381C300C70E2
:1020F00006600600060006000600060006000660F0
:102100000C701C30F01FE007000000000000000011
:10211000000000000000FE03FE0F060E0618061861
:102120000630063006300630063006300630061817
:102130000618060EFE0FFE0300000000000000005F
:10214000000000000000FC3FFC3F0C000C000C00F5
:102150000C000C00FC1FFC1F0C000C000C000C0001
:102160000C000C00FC3FFC3F0000000000000000E1
:10217000000000000000F83FF83F180018001800A9
:1021800018001800F81FF81F180018001800180091
:1021900018001800180018000000000000000000DF
:1021A000000000000000E00FF83F3C780E6006E001
:1021B00007C00300030003FE03FE03C007C006C000
:1021C0000EC03CF0F83FE00F0000000000000000EF
:1021D0000000000000000C300C300C300C300C30D3
:1021E0000C300C30FC3FFC3F0C300C300C300C3011
:1021F0000C300C300C300C300000000000000000EF
:102200000000000000008001800180018001800149
:1022100080018001800180018001800180018001B6
:1022200080018001800180010000000000000000AA
:102230000000000000000006000600060006000680
:102240000006000600060006000600060006180646
:1022500018063807F003E00100000000000000004D
:1022600000000000000006300618060C06060603F3
:102270008601C60066007600DE008E0106030606B3
:10228000060C061806300660000000000000000082
:1022900000000000000018001800180018001800C6
:1022A000180018001800180018001800180018006E
:1022B00018001800F81FF81F0000000000000000C0
:1022C0000000000000000EE01EF01EF01EF036D8E8
:1022D00036D836D836D866CC66CC66CCC6C6C6C626
:1022E000C6C6C6C686C386C3000000000000000044
:1022F0000000000000000C301C303C303C306C30E2
:102300006C30CC30CC308C310C330C330C360C367A
:102310000C3C0C3C0C380C300000000000000000AD
:10232000000000000000E007F81F1C380E70066077
:1023300003C003C003C003C003C003C003C00660E2
:102340000E701C38F81FE0070000000000000000BD
:10235000000000000000FC0FFC1F0C380C300C309B
:102360000C300C300C18FC1FFC070C000C000C008F
:102370000C000C000C000C0000000000000000002D
:10238000000000000000E007F81F1C380E70066017
:1023900003E003C003C003C003C003C007E006633B
:1023A0000E3F1C3CF83FE0F700C0000000000000BA
:1023B000000000000000FE0FFE1F06380630063049
:1023C00006300638FE1FFE0706030606060C061832
:1023D000061806300630066000000000000000000D
:1023E000000000000000E003F80F1C0C0C180C1893
:1023F0000C001C00F803E00F001E00380630063009
:102400000E301C1CF80FE007000000000000000068
:10241000000000000000FE7FFE7F8001800180013F
:1024200080018001800180018001800180018001A4
:102430008001800180018001000000000000000098
:102440000000000000000C300C300C300C300C3060
:102450000C300C300C300C300C300C300C300C309C
:102460000C301818F81FE007000000000000000002
:1024700000000000000003600630063006300C1833
:102480000C180C18180C180C380E30063006700793
:1024900060036003C001C0010000000000000000F4
:1024A0000000000000000360C361C361C3616633C4
:1024B000663366336633663366336C1B6C1B6C1B8A
:1024C0002C1A3C1E380E380E0000000000000000E0
:1024D0000000000000000FE00C7018303018700C85
:1024E000600EC00780038003C003E006700C301C40
:1024F00018180C300E6007E000000000000000001B
:1025000000000000000003C006600C301C383818C2
:10251000300C6006E007C00380018001800180016B
:1025200080018001800180010000000000000000A7
:10253000000000000000FC7FFC7F006000300018FD
:10254000000C000600038001C0006000300018008D
:102550000C000600FE7FFE7F00000000000000006F
:10256000000000000000E003E00360006000600085
:10257000600060006000600060006000600060005B
:102580006000600060006000600060006000E003C8
:10259000E0030000000030003000600060006000D8
:1025A000C000C000C000C0018001800180010003A4
:1025B0000003000300060006000000000000000009
:1025C000000000000000E003E0030003000300033C
:1025D00000030003000300030003000300030003E3
:1025E0000003000300030003000300030003E003F3
:1025F000E003000000000000C001C00160036003B0
:10260000600330063006180C180C000000000000B3
:1026100000000000000000000000000000000000BA
:1026200000000000000000000000000000000000AA
:10263000000000000000000000000000000000009A
:10264000000000000000FFFFFFFF0000000000008E
:102650000000000000000C000C000C000C000C003E
:102660000C0000000000000000000000000000005E
:10267000000000000000000000000000000000005A
:10268000000000000000000000000000000000004A
:10269000F003F8071C0C0C0C000FF00FF80C0C0CDE
:1026A0000C0C1C0FF80FF0180000000000000000D8
:1026B00000000000000018001800180018001800A2
:1026C000D803F80F380C18181818181818181818F4
:1026D0001818380CF80FD8030000000000000000A4
:1026E00000000000000000000000000000000000EA
:1026F000C003F007300E180C18001800180018005E
:10270000180C300EF007C0030000000000000000AD
:102710000000000000000018001800180018001841
:10272000C01BF01F301C1818181818181818181883
:102730001818301CF01FC01B000000000000000033
:102740000000000000000000000000000000000089
:10275000C003F00F300C1818F81FF81F18001800ED
:102760003818301CF00FC007000000000000000007
:10277000000000000000800FC00FC000C000C000BB
:10278000F007F007C000C000C000C000C000C000DB
:10279000C000C000C000C000000000000000000039
:1027A0000000000000000000000000000000000029
:1027B000E00DF80F180E0C0C0C0C0C0C0C0C0C0C87
:1027C0000C0C180EF80FE00D000C0C0C1C06F80792
:1027D000F001000000001800180018001800180090
:1027E000D807F80F381C18181818181818181818BF
:1027F0001818181818181818000000000000000019
:10280000000000000000C000C00000000000000048
:10281000C000C000C000C000C000C000C000C000B8
:10282000C000C000C000C0000000000000000000A8
:10283000000000000000C000C00000000000000018
:10284000C000C000C000C000C000C000C000C00088
:10285000C000C000C000C000C000C000C000F80040
:102860007800000000000C000C000C000C000C00B4
:102870000C0C0C060C038C01CC006C00FC009C01C1
:102880008C030C030C060C0C000000000000000080
:10289000000000000000C000C000C000C000C00078
:1028A000C000C000C000C000C000C000C000C00028
:1028B000C000C000C000C000000000000000000018
:1028C0000000000000000000000000000000000008
:1028D0007C3CFF7EC7E383C183C183C183C183C1C5
:1028E00083C183C183C183C10000000000000000D8
:1028F00000000000000000000000000000000000D8
:102900009807F80F381C18181818181818181818DD
:1029100018181818181818180000000000000000F7
:1029200000000000000000000000000000000000A7
:10293000C003F00F300C18181818181818181818A9
:102940001818300CF00FC003000000000000000059
:102950000000000000000000000000000000000077
:10296000D803F80F380C1818181818181818181851
:102970001818380CF80FD8031800180018001800A1
:10298000180000000000000000000000000000002F
:10299000C01BF01F301C1818181818181818181811
:1029A0001818301CF01FC01B001800180018001861
:1029B00000180000000000000000000000000000FF
:1029C000B007F003700030003000300030003000FD
:1029D0003000300030003000000000000000000037
:1029E00000000000000000000000000000000000E7
:1029F000E003F003380E180C3800F003C007000C99
:102A0000180C380EF007E003000000000000000082
:102A100000000000000000008000C000C000C000F6
:102A2000F007F007C000C000C000C000C000C00038
:102A3000C000C000C00780070000000000000000C8
:102A40000000000000000000000000000000000086
:102A500018181818181818181818181818181818F6
:102A60001818381CF01FE0190000000000000000DA
:102A70000000000000000000000000000000000056
:102A80000C18180C180C180C3006300630066003B1
:102A900060036003C001C0010000000000000000EE
:102AA0000000000000000000000000000000000026
:102AB000C141C141C36163636363636336363636C4
:102AC00036361C1C1C1C1C1C0000000000000000F2
:102AD00000000000000000000000000000000000F6
:102AE0001C38381C300C6006C003C003C003C00390
:102AF0006006300C381C1C3800000000000000008C
:102B000000000000000000000000000000000000C5
:102B10001830301830187018600C600CE00CC006CB
:102B2000C00680038003800380018001C001F000A3
:102B30007000000000000000000000000000000025
:102B4000FC1FFC1F000C000600038001C000600099
:102B500030001800FC1FFC1F0000000000000000F7
:102B600000000000000000038001C000C000C000A1
:102B7000C000C000C0006000600030006000400085
:102B8000C000C000C000C000C000C0008001000341
:102B900000000000000080018001800180018001B0
:102BA000800180018001800180018001800180011D
:102BB000800180018001800180018001800180010D
:102BC0008001000000006000C000C00180018001A1
:102BD0008001800180010003000300060003000162
:102BE000800180018001800180018001C0006000BF
:102BF00000000000000000000000000000000000D5
:102C000000000000F010F81F080F00000000000096
:102C100000000000000000000000000000000000B4
:102C200000000000000000000000000000000000A4
:102C30000000000000000000000000000000000094
:102C40000000000000000000000000000000000084
:102C50000000000000000000000000000000C003B1
:102C6000300C0810042004200240024002400240C0
:102C70000240042004200810300CC00300000000B3
:102C80000000000000000000000000000000C00381
:102C9000F00FF81FFC3FFC3FFE7FFE7FFE7FFE7FB4
:102CA000FE7FFC3FFC3FF81FF00FC0030000000058
:102CB0000000000000000000000000000000000014
:102CC0000000E007F00F181818181818181818182E
:102CD0001818F00FE00700000000000000000000DE
:102CE00000000000000000000000000000000000E4
:102CF0000000E007F00FF81FF81FF81FF81FF81F7B
:102D0000F81FF00FE00700000000000000000000C6
:102D100000000000000000000000000000000000B3
:102D20000000000000000000000000008001C0035F
:102D30006006300C18181818F81FF81F0000000063
:102D40000000000000000000000000000000000083
:102D50000000000000000000000000008001C0032F
:102D6000E007F00FF81FF81FF81FF81F0000000021
:102D7000000000000000000000000000F81FF81F25
:102D800018181818300C6006C003800100000000FD
:102D90000000000000000000000000000000000033
:102DA000000000000000000000000000F81FF81FF5
:102DB000F81FF81FF00FE007C003800100000000BB
:102DC0000000000000000000000000000000000003
:102DD00000000000000000000000000000000000F3
:102DE0000000E001F00198018C01860186018C0150
:102DF0009801F001E0010000000000000000000068
:102E000000000000000000000000000000000000C2
:102E10000000E001F001F801FC01FE01FE01FC01EF
:102E2000F801F001E00100000000000000000000D7
:102E30000000000000000000000000000000000092
:102E400000008007800F80198031806180618031AF
:102E50008019800F800700000000000000000000C3
:102E60000000000000000000000000000000000062
:102E700000008007800F801F803F807F807F803F21
:102E8000801F800F8007000000000000000000008D
:102E9000000000000000C0012002200240013006B6
:102EA0000808080808080808080808080808200290
:102EB0002002200220022002200220022002200202
:102EC000200200000000C001E003E003C001F007A1
:102ED000D80DD80DD80DD80DD80DD80DD80D60034C
:102EE00060036003600360036003600360036003CA
:102EF000600300000000C0012002200240013006F3
:102F000008080808080804100220022040012002D6
:102F100020021004080808080410041004200440CB
:102F2000000000000000C001E003E003C001F00762
:102F3000D80DD80DD80DCC19C631C261C0016003BF
:102F400060037006380C180C0C180C180C300C6050
:102F500000000000060008002000000070000000D3
:102F6000D4160008100018002000000070000000B7
:102F7000541A0008942F0008000000203C000000B4
:102F80005C0C0008D02F00083C0000200404000066
:102F90006C0C0008000000000000000000000000B1
:102FA0000000000000000000000000000000FFFF23
:102FB000000000000000000000A24A040000000021
:102FC00000000000010203040607080900000000D9
:0400000508000145A9
:00000001FF
