:020000040800F2
:1000000018040020450100084D0100084F010008B8
:1000100051010008530100085501000800000000CC
:100020000000000000000000000000005701000870
:1000300059010008000000005B0100085D01000894
:100040005F0100085F0100085F0100085F01000810
:100050005F0100085F0100085F0100085F01000800
:100060005F0100085F0100085F0100085F010008F0
:100070005F0100085F0100085F0100085F010008E0
:100080005F0100085F0100085F0100085F010008D0
:100090005F0100085F0100085F0100085F010008C0
:1000A0005F0100085F0100085F0100085F010008B0
:1000B0005F0100085F0100085F0100085F010008A0
:1000C0005F0100085F0100085F0100085F01000890
:1000D0005F0100085F0100085F0100085F01000880
:1000E0005F0100085F0100085F0100085F01000870
:1000F0005F0100085F0100085F0100085F01000860
:100100005F0100085F0100085F0100085F0100084F
:100110005F0100085F0100085F0100085F0100083F
:100120005F0100085F0100085F0100085F0100082F
:10013000DFF80CD000F018F80048004789030008E9
:10014000180400200648804706480047FEE7FEE7FF
:10015000FEE7FEE7FEE7FEE7FEE7FEE7FEE7FEE777
:100160002103000831010008064C074D06E0E06855
:1001700040F0010394E8070098471034AC42F6D3EE
:10018000FFF7DAFF7C0400088C04000841F2180134
:10019000C4F20201086840F008000860086840F4F2
:1001A00080700860086840F0200008607047000018
:1001B00040F60441C4F201014FF03330086042F2CE
:1001C0000401C4F2010108680022C4F24042104355
:1001D000086042F20001C4F20101086840F080406A
:1001E000086041F20041C4F20101086840F4804017
:1001F0000860704780B500F001F880BD84B0002031
:100200000390029041F20001C4F20201086840F438
:1002100080300860FFE741F20000C4F2020000688D
:1002200000F400300290039801300390FFE7029938
:100230000020019039B9FFE70398B0F5A06018BF1E
:1002400001200190FFE70198C0070028E3D1FFE7F4
:1002500041F20000C4F2020000688003002803D5C8
:10026000FFE70120029002E000200290FFE70298E1
:10027000012851D1FFE742F20001C4F202010868EF
:1002800040F010000860086820F00300086008686B
:1002900040F00200086041F20401C4F20201009142
:1002A0000868086008680860086840F480600860B2
:1002B000086820F47C100860086840F4E8100860C2
:1002C00041F20001C4F20201086840F08070086049
:1002D000FFE741F20000C4F202000068800100283C
:1002E00001D4FFE7F5E741F20401C4F20201086816
:1002F00020F003000860086840F002000860FFE793
:1003000041F20400C4F20200006800F00C0008286A
:1003100001D0FFE7F4E700E0FFE704B0704700001A
:1003200080B541F20002C4F20202106840F0010000
:10033000106041F20401C4F2020108680023CFF604
:10034000FF031840086010684FF6FF73CFF6F6639E
:1003500018401060106820F480201060086820F4B5
:10036000FE00086041F20801C4F202014FF41F00D0
:100370000860FFF73FFF4EF60851CEF200014FF044
:100380000060086080BD000080B582B00020019050
:10039000FFF7FCFEFFF70CFFFFE742F20801C4F293
:1003A0000101086800F0800240F20C00C2F2000077
:1003B000026041F20842C4F20102126802F008022F
:1003C00040F20003C2F200031A600A6802F400421D
:1003D00040F21003C2F200031A600A6802F480427D
:1003E00040F20403C2F200031A60096801F40051EC
:1003F00040F20802C2F2000211600068E0B1FFE7BB
:1004000040F20800C2F200000068A8B1FFE740F225
:100410001000C2F20000006870B1FFE740F2000077
:10042000C2F20000006838B1FFE740F20400C2F2F7
:100430000000006848B9FFE740F60C41C4F2010132
:10044000086840F40040086007E040F60C41C4F240
:100450000101086800200860FFE79EE702E008C885
:10046000121F08C1002AFAD170477047002001E02E
:1004700001C1121F002AFBD1704700008C04000844
:0C04800000000020180400006C040008BC
:0400000508000145A9
:00000001FF
