:020000040800F2
:1000000010040020450100084D0100084F010008C0
:1000100051010008530100085501000800000000CC
:100020000000000000000000000000005701000870
:1000300059010008000000005B0100085D01000894
:100040005F0100085F0100085F0100085F01000810
:100050005F0100085F0100085F0100085F01000800
:100060005F0100085F0100085F0100085F010008F0
:100070005F0100085F0100085F0100085F010008E0
:100080005F0100085F0100085F0100085F010008D0
:100090005F0100085F0100085F0100085F010008C0
:1000A0005F0100085F0100085F0100085F010008B0
:1000B0005F0100085F0100085F0100085F010008A0
:1000C0005F0100085F0100085F0100085F01000890
:1000D0005F0100085F0100085F0100085F01000880
:1000E0005F0100085F0100085F0100085F01000870
:1000F0005F0100085F0100085F0100085F01000860
:100100005F0100085F0100085F0100085F0100084F
:100110005F0100085F0100085F0100085F0100083F
:100120005F0100085F0100085F0100085F0100082F
:10013000DFF80CD000F018F8004800476103000811
:10014000100400200648804706480047FEE7FEE707
:10015000FEE7FEE7FEE7FEE7FEE7FEE7FEE7FEE777
:10016000F902000831010008064C074D06E0E0687E
:1001700040F0010394E8070098471034AC42F6D3EE
:10018000FFF7DAFFC4040008E404000841F2180095
:10019000C4F20200016841F008010160016841F405
:1001A000807101607047000040F60440C4F2010015
:1001B0004FF03331016042F20400C4F201000168E3
:1001C00041F004010160704780B500F001F880BD86
:1001D00083B000200290019041F20000C4F20200BE
:1001E000016841F480310160FFE741F20000C4F290
:1001F0000200006800F40030019002980130029083
:10020000FFE7019800210028009109D1FFE702983B
:10021000A0F5A061B0F5A06F18BF01210091FFE724
:100220000098C0070028E0D1FFE741F20000C4F2C7
:100230000200006810F4003F03D0FFE701200190A6
:1002400002E000200190FFE70198012850D1FFE76C
:1002500042F20000C4F20200016841F010010160A6
:10026000016821F003010160016841F002010160B1
:1002700041F20400C4F202000168016001680160FB
:10028000016841F480610160016821F47C11016022
:10029000016841F4E811016041F20000C4F202007B
:1002A000016841F080710160FFE741F20000C4F293
:1002B0000200006810F0007F01D1FFE7F5E741F28E
:1002C0000400C4F20200016821F00301016001682A
:1002D00041F002010160FFE741F20400C4F20200B4
:1002E000006800F00C00082801D0FFE7F4E700E008
:1002F000FFE703B07047000080B541F20000C4F290
:100300000200016841F00101016041F20401C4F200
:1003100002010A680023CFF6FF031A400A60026850
:100320004FF6FF73CFF6F6631A400260026822F4BC
:1003300080220260086820F4FE00086041F2080094
:10034000C4F202004FF41F010160FFF73DFF4EF6BB
:100350000850CEF200004FF00061016080BD000047
:1003600080B582B000200190FFF710FFFFF71CFF5F
:1003700041F21800C4F20200D0F800E04EF4006E22
:10038000C0F800E042F60040C4F20100B0F800E01E
:100390004EF0010EA0F800E042F62840C4F2010041
:1003A0004FF0DB0EA0F800E042F62C40C4F2010052
:1003B0004FF47A4EA0F800E040F60C40C4F2010081
:1003C0004FF4807EC0F800E0FFE742F20800C4F27C
:1003D0000100006800F4807040F20801C2F20001E0
:1003E0000860086840F20001C2F200010968884212
:1003F0001DD0FFE740F20800C2F2000000680028AC
:1004000015D1FFE740F20C00C2F200000168C943B9
:10041000016044F24020C0F20F000090FFE7009816
:10042000411E0091002801D0FFE7F8E7FFE740F206
:100430000800C2F20000006840F20001C2F20001B0
:10044000086040F20C00C2F200000068002807D1EA
:10045000FFE742F62840C4F20100DB21018006E0FC
:1004600042F62840C4F201006E210180FFE742F607
:100470001040C4F20100008810F0010F11D0FFE716
:1004800040F60C40C4F20100016881F48071016003
:1004900042F61040C4F20100018821F00101018000
:1004A000FFE792E702E008C8121F08C1002AFAD14C
:1004B00070477047002001E001C1121F002AFBD1E4
:1004C00070470000E4040008000000200400000061
:1004D000A4040008E8040008080000200804000044
:0804E000B40400080100000053
:0400000508000145A9
:00000001FF
