:020000040800F2
:1000000008040020450100084D0100084F010008C8
:1000100051010008530100085501000800000000CC
:100020000000000000000000000000005701000870
:1000300059010008000000005B0100085D01000894
:100040005F0100085F0100085F0100085F01000810
:100050005F0100085F0100085F0100085F01000800
:100060005F0100085F0100085F0100085F010008F0
:100070005F0100085F0100085F0100085F010008E0
:100080005F0100085F0100085F0100085F010008D0
:100090005F0100085F0100085F0100085F010008C0
:1000A0005F0100085F0100085F0100085F010008B0
:1000B0005F0100085F0100085F0100085F010008A0
:1000C0005F0100085F0100085F0100085F01000890
:1000D0005F0100085F0100085F0100085F01000880
:1000E0005F0100085F0100085F0100085F01000870
:1000F0005F0100085F0100085F0100085F01000860
:100100005F0100085F0100085F0100085F0100084F
:100110005F0100085F0100085F0100085F0100083F
:100120005F0100085F0100085F0100085F0100082F
:10013000DFF80CD000F018F800480047250300084D
:10014000080400200648804706480047FEE7FEE70F
:10015000FEE7FEE7FEE7FEE7FEE7FEE7FEE7FEE777
:10016000BD02000831010008064C074D06E0E068BA
:1001700040F0010394E8070098471034AC42F6D3EE
:10018000FFF7DAFF000400081004000880B500F053
:1001900001F880BD83B000200290019041F2000080
:1001A000C4F20200016841F480310160FFE741F2CE
:1001B0000000C4F20200006800F4003001900298D0
:1001C00001300290FFE7019800210028009109D139
:1001D000FFE70298A0F5A061B0F5A06F18BF01215C
:1001E0000091FFE70098C0070028E0D1FFE741F247
:1001F0000000C4F20200006810F4003F03D0FFE7E3
:100200000120019002E000200190FFE70198012801
:1002100050D1FFE742F20000C4F20200016841F051
:1002200010010160016821F003010160016841F0E3
:100230000201016041F20400C4F2020001680160A1
:1002400001680160016841F480610160016821F486
:100250007C110160016841F4E811016041F2000085
:10026000C4F20200016841F080710160FFE741F2D1
:100270000000C4F20200006810F0007F01D1FFE727
:10028000F5E741F20400C4F20200016821F0030125
:100290000160016841F002010160FFE741F20400E2
:1002A000C4F20200006800F00C00082801D0FFE74B
:1002B000F4E700E0FFE703B07047000080B541F2CB
:1002C0000000C4F20200016841F00101016041F246
:1002D0000401C4F202010A680023CFF6FF031A40AA
:1002E0000A6002684FF6FF73CFF6F6631A400260A9
:1002F000026822F480220260086820F4FE00086090
:1003000041F20800C4F202004FF41F010160FFF740
:100310003DFF4EF60850CEF200004FF00061016044
:1003200080BD000081B00020009041F21800C4F2AE
:100330000200016841F00801016040F60441C4F286
:1003400001014FF033320A60016841F4006101603D
:1003500042F60040C4F20100018841F00101018031
:1003600042F62C40C4F201004FF47A41018040F67D
:100370000C40C4F201004FF480710160FFE742F6C7
:100380001040C4F20100008810F0010F10D0FFE708
:1003900040F20000C2F2000001680131016042F643
:1003A0001040C4F20100018821F001010180FFE743
:1003B00040F20000C2F200000068E1280FD1FFE720
:1003C00040F60C40C4F20100016881F480710160C4
:1003D00040F20000C2F2000000210160FFE7CEE71A
:1003E00002E008C8121F08C1002AFAD170477047FE
:1003F000002001E001C1121F002AFBD1704700005C
:10040000100400080000002008040000F0030008A9
:0400000508000145A9
:00000001FF
