:020000040800F2
:1000000010040020450100084D0100084F010008C0
:1000100051010008530100085501000800000000CC
:100020000000000000000000000000005701000870
:1000300059010008000000005B0100085D01000894
:100040005F0100085F0100085F0100085F01000810
:100050005F0100085F0100085F0100085F01000800
:100060005F0100085F0100085F0100085F010008F0
:100070005F0100085F0100085F0100085F010008E0
:100080005F0100085F0100085F0100085F010008D0
:100090005F0100085F0100085F0100085F010008C0
:1000A0005F0100085F0100085F0100085F010008B0
:1000B0005F0100085F0100085F0100085F010008A0
:1000C0005F0100085F0100085F0100085F01000890
:1000D0005F0100085F0100085F0100085F01000880
:1000E0005F0100085F0100085F0100085F01000870
:1000F0005F0100085F0100085F0100085F01000860
:100100005F0100085F0100085F0100085F0100084F
:100110005F0100085F0100085F0100085F0100083F
:100120005F0100085F0100085F0100085F0100082F
:10013000DFF80CD000F018F8004800475D03000815
:10014000100400200648804706480047FEE7FEE707
:10015000FEE7FEE7FEE7FEE7FEE7FEE7FEE7FEE777
:10016000F502000831010008064C074D06E0E06882
:1001700040F0010394E8070098471034AC42F6D3EE
:10018000FFF7DAFF2C0400084C04000841F21801C4
:10019000C4F20201086840F008000860086840F4F2
:1001A000807008607047000040F60441C4F201010D
:1001B0004FF03330086042F20401C4F201010868D4
:1001C00040F004000860704780B500F001F880BD81
:1001D00084B000200390029041F20001C4F20201B9
:1001E000086840F480300860FFE741F20000C4F284
:1001F0000200006800F40030029003980130039080
:10020000FFE702990020019039B9FFE70398B0F5A4
:10021000A06018BF01200190FFE70198C0070028E7
:10022000E3D1FFE741F20000C4F20200006880035E
:10023000002803D5FFE70120029002E00020029091
:10024000FFE70298012851D1FFE742F20001C4F212
:100250000201086840F010000860086820F0030000
:100260000860086840F00200086041F20401C4F22E
:10027000020100910868086008680860086840F496
:1002800080600860086820F47C100860086840F40A
:10029000E810086041F20001C4F20201086840F071
:1002A00080700860FFE741F20000C4F202000068BD
:1002B0008001002801D4FFE7F5E741F20401C4F210
:1002C0000201086820F003000860086840F002009E
:1002D0000860FFE741F20400C4F20200006800F089
:1002E0000C00082801D0FFE7F4E700E0FFE704B0C6
:1002F0007047000080B541F20002C4F202021068AB
:1003000040F00100106041F20401C4F202010868EB
:100310000023CFF6FF031840086010684FF6FF7304
:10032000CFF6F66318401060106820F4802010604B
:10033000086820F4FE00086041F20801C4F20201DE
:100340004FF41F000860FFF73FFF4EF60851CEF252
:1003500000014FF00060086080BD000080B584B0EF
:10036000002001900390FFF711FFFFF71DFF019898
:1003700040F60C41C4F201010860FFE742F20800B8
:10038000C4F20100006800F4807140F20800C2F27B
:1003900000000160006840F20001C2F2000109683B
:1003A00088421DD0FFE740F20800C2F2000000685A
:1003B000B0B9FFE740F20C01C2F200010868013059
:1003C00008600878086044F24020C0F20F000290F4
:1003D000FFE70298411E029108B1FFE7F9E7FFE746
:1003E00040F20800C2F20000006840F20001C2F2D0
:1003F0000001086040F20C00C2F200000068000238
:1004000040F60C41C4F201010860B7E702E008C8F9
:10041000121F08C1002AFAD170477047002001E07E
:1004200001C1121F002AFBD1704700004C040008D4
:1004300000000020040000000C0400085004000824
:1004400008000020080400001C040008010000004F
:0400000508000145A9
:00000001FF
